:020000040800F2
:1000000000500020C50C0008D50B0008DD0B0008CF
:10001000E50B0008ED0B0008F50B000800000000E0
:10002000000000000000000000000000FD0B0008C0
:10003000090C000800000000150C0008210C000845
:100040000D0D00080D0D00080D0D00080D0D000828
:100050000D0D00080D0D00080D0D00082D0C0008F9
:100060000D0D00080D0D00080D0D00080D0D000808
:100070000D0D00080D0D00080D0D00080D0D0008F8
:100080000D0D00080D0D00080D0D00080D0D0008E8
:100090000D0D00080D0D00080D0D00083B0C0008AB
:1000A0000D0D00080D0D00080D0D00080D0D0008C8
:1000B0000D0D00080D0D00080D0D00080D0D0008B8
:1000C0000D0D00080D0D00080D0D00080D0D0008A8
:1000D0000D0D00080D0D00080D0D00080D0D000898
:1000E0000D0D00080D0D00080D0D000800000000AA
:1000F0000000000000000000000000000000000000
:0C01000000000000000000005FF808F1A3
:10010C0010B5054C237833B9044B13B10448AFF345
:10011C0000800123237010BD5C0100200000000052
:10012C00342A000808B5034B1BB103490348AFF34D
:10013C00008008BD0000000060010020342A000887
:10014C00034613F8012B002AFBD1181A013870470B
:10015C0080B582B000AF03463960FB713B68DBB2FF
:10016C001A464FF48041204801F0FBF8FB79DB087C
:10017C00DBB203F00103DBB21A4680211B4801F00D
:10018C00F0F8FB799B08DBB203F00103DBB21A46F3
:10019C004021164801F0E5F8FB795B08DBB203F06F
:1001AC000103DBB21A462021104801F0DAF8FB7982
:1001BC0003F00103DBB21A4610210C4801F0D1F810
:1001CC0001220821094801F0CCF80A2000F0FCFDBE
:1001DC0000220821054801F0C4F80A2000F0F4FDC3
:1001EC0000BF0837BD4680BD00080140000C01402F
:1001FC0080B584B000AF0346FB71FB791B09FB7320
:10020C00FB7B00211846FFF7A3FFFB7903F00F03DC
:10021C00FB73FB7B00211846FFF79AFF00BF1037DA
:10022C00BD4680BD80B584B000AF0346FB71FB7941
:10023C001B09FB73FB7B01211846FFF789FFFB7938
:10024C0003F00F03FB73FB7B01211846FFF780FFC4
:10025C0000BF1037BD4680BD80B582B000AF78605E
:10026C0039607B68002B03D07B68012B05D009E03B
:10027C003B6843F080033B6004E03B6843F0C00301
:10028C003B6000BF3B68DBB21846FFF7B1FF00BF15
:10029C000837BD4680BD80B500AF0A2000F094FD44
:1002AC000220FFF7A5FF2820FFF7A2FF0820FFF789
:1002BC009FFF0120FFF79CFF0620FFF799FF0C2002
:1002CC00FFF796FF00BF80BD80B582B000AF7860AD
:1002DC0006E07B685A1C7A601B781846FFF7A2FF71
:1002EC007B681B78002BF4D100BF00BF0837BD46DC
:1002FC0080BD000080B500AF00F004FD00F064F894
:10030C0000F0CEF800F0A2F84FF0FF332A22254976
:10031C00254801F0CFFCFFF7BEFF00210020FFF7BE
:10032C009BFF2248FFF7D0FF0C210120FFF794FF21
:10033C001F48FFF7C9FF00F03DFD03461D4A13603F
:10034C001D4B1B78DBB2002B01D100F033FB00F00E
:10035C0081FB1A4B1B78DBB2002B1ED0174B0022F3
:10036C001A70174800F0A2F9134B1B78DBB2002B64
:10037C0004D0012B11D100F005FA0EE0114B1B78C3
:10038C00DBB2002B02D0012B03D005E000F07AFA8F
:10039C0002E000F051FA00BF00BF0A2000F014FD8B
:1003AC00CEE700BFEC2B000878010020402B0008A2
:1003BC004C2B0008C80100205102002050020020E4
:1003CC00C00100205202002080B590B000AF07F1B0
:1003DC00180328220021184601F098FE3B1D00222C
:1003EC001A605A609A60DA601A610223BB610123B9
:1003FC00BB621023FB6202237B630023BB634FF4BD
:10040C006013FB6307F11803184600F0F3FF034673
:10041C00002B01D000F054FB0F237B600223BB6048
:10042C000023FB604FF480633B6100237B613B1D29
:10043C000221184601F060FA0346002B01D000F0AF
:10044C003FFB00BF4037BD4680BD000080B500AF0C
:10045C00114B124A1A60104B4FF4E1325A600E4B9A
:10046C0000229A600C4B0022DA600B4B00221A61BE
:10047C00094B0C225A61084B00229A61064B002250
:10048C00DA61054801F0C6FB0346002B01D000F0F1
:10049C0017FB00BF80BD00BF780100200038014071
:1004AC0080B586B000AF07F1080300221A605A60CD
:1004BC009A60DA603D4B9B693C4A43F004039361BC
:1004CC003A4B9B6903F004037B607B68374B9B6959
:1004DC00364A43F008039361344B9B6903F00803DD
:1004EC003B603B6800224FF6F841314800F039FF81
:1004FC0000224FF460412F4800F033FF1F23BB60F4
:10050C000023FB6001233B6107F1080319462948CE
:10051C0000F08CFD0223BB60274BFB6001233B6189
:10052C0007F108031946224800F080FD4FF6F84306
:10053C00BB600123FB6000233B6102237B6107F15D
:10054C00080319461A4800F071FD4FF46043BB6074
:10055C000123FB6000233B6102237B6107F108034D
:10056C001946144800F062FD4FF40073BB60134B46
:10057C00FB6000233B6107F1080319460C4800F0AF
:10058C0055FD00220021072000F019FD072000F086
:10059C0032FD00220021172000F011FD172000F081
:1005AC002AFD00BF1837BD4680BD00BF00100240B9
:1005BC00000C014000080140000021100000111047
:1005CC0080B582B000AF0346FB80FB88022B47D17D
:1005DC0000F07EF92A4B1B78DBB21F2B13D1294B71
:1005EC001B78DBB283F00103DAB2264B1A70254B71
:1005FC001B78DBB2012B06D14FF0FF330F222249BF
:10060C00224801F057FB1E4B1B78DBB21D2B0CD183
:10061C001F4B1B78DBB283F00103DAB21C4B1A7050
:10062C004FF400511B4800F0B4FE154B1B78DBB2A5
:10063C001E2B07D14FF0FF3340F2FF12164913481F
:10064C0001F038FB4FF48061144800F0A2FE00F07A
:10065C00B1FB0346124A1360124B01221A700BE0D5
:10066C00FB88B3F5007F07D14FF0FF3341F2ED3239
:10067C000D49064801F01EFB00BF0837BD4680BD82
:10068C005302002051020020DC2B000878010020CE
:10069C005202002000080140182C0008000C0140F8
:1006AC005402002050020020182E000880B582B0A1
:1006BC0000AF78607B681B78002B14BF01230023EC
:1006CC00DBB21A464FF400411F4800F04AFE7B682B
:1006DC0001331B78002B14BF01230023DBB21A4615
:1006EC004FF48041184800F03CFE7B6802331B78C5
:1006FC00002B14BF01230023DBB21A464FF4005128
:10070C00114800F02EFE7B6803331B78002B14BFBE
:10071C0001230023DBB21A464FF480510A4800F043
:10072C0020FE7B6804331B78002B14BF01230023AD
:10073C00DBB21A464FF40061034800F012FE00BF12
:10074C000837BD4680BD00BF000C014080B582B0AB
:10075C0000AF00F02FFB0246084B1B68D31A7B60DE
:10076C00C8227B68934205D900224FF4806104486B
:10077C0000F0F7FD00BF0837BD4680BD54020020D5
:10078C00000C0140F0B58DB008AF00F013FB024631
:10079C00214B1B68D31AFB60204B1B79DBB29C46A8
:1007AC001E4BDB78DBB21A461C4B9B78DBB219462E
:1007BC001A4B5B78DBB21846184B1B78DBB21C4625
:1007CC00174B1B78DBB21D46164B1B78DBB21E4653
:1007DC00154B1B78DBB27B60FB6807937B68069339
:1007EC0005960495039402900191009263460F4A7A
:1007FC0080210F4801F032FC0D48FFF7A1FC0346A5
:10080C009AB24FF0FF330A490A4801F053FA00BF7D
:10081C001437BD46F0BD00BF54020020C0010020BB
:10082C00530200205102002052020020542B0008D9
:10083C00D00100207801002080B500AF0C4B1B7854
:10084C00DBB21A460B4B53F822300B4A80210B4873
:10085C0001F004FC0948FFF773FC03469AB24FF011
:10086C00FF330649064801F025FA00BF80BD00BFE2
:10087C005302002000000020B02B0008D001002003
:10088C007801002080B500AF0C4B1B78DBB21A4608
:10089C000B4B53F822300B4A80210B4801F0DEFB46
:1008AC000948FFF74DFC03469AB24FF0FF33064957
:1008BC00064801F0FFF900BF80BD00BF53020020C5
:1008CC0080000020B02B0008D0010020780100200F
:1008DC0080B500AF0121344800F02CFD0346002BFD
:1008EC000CBF01230023DBB21A46304B1A700221D5
:1008FC002D4800F01FFD0346002B0CBF01230023E5
:10090C00DBB21A46294B5A700421274800F012FD1D
:10091C000346002B0CBF01230023DBB21A46234BEA
:10092C009A700821204800F005FD0346002B0CBFEF
:10093C0001230023DBB21A461C4BDA7010211A4833
:10094C0000F0F8FC0346002B0CBF01230023DBB2A4
:10095C001A46164B1A71154B1B79DBB25BB21B0195
:10096C005AB2124BDB78DBB25BB2DB005BB21343E7
:10097C005AB20E4B9B78DBB25BB29B005BB213435B
:10098C005AB20A4B5B78DBB25BB25B005BB21343CF
:10099C005AB2064B1B78DBB25BB213435BB2DAB2D2
:1009AC00034B1A7000BF80BD00080140C00100203D
:1009BC005302002080B586B000AF00F0FBF97861DF
:1009CC00154B1B687A69D31AB3F57A7F20D3124A78
:1009DC007B691360114B1B687A69D31A104AA2FB0E
:1009EC0003239B093B6100210120FFF735FC0D48D7
:1009FC00FFF76AFC00210120FFF72EFC3B463A6909
:100A0C000949184601F060FB3B461846FFF75CFCB1
:100A1C0000BF1837BD4680BDCC010020C8010020A6
:100A2C00D34D6210B42B0008C42B000880B500AF66
:100A3C0000210020FFF710FC0548FFF745FC0021C2
:100A4C000120FFF709FC0248FFF73EFC00BF80BD08
:100A5C00C82B000880B500AF154B1B78002B09D1B3
:100A6C00144B1B78DBB2012B04D1FFF7DFFF104BCB
:100A7C0001221A700E4B1B78012B17D10D4B1B78D2
:100A8C00DBB2002B12D100210020FFF7E5FB0A4856
:100A9C00FFF71AFC0C210120FFF7DEFB0748FFF7DC
:100AAC0013FCFFF753FE024B00221A7000BF80BDEF
:100ABC005802002051020020402B00084C2B00084B
:100ACC0080B400AF72B600BF00BFFDE780B485B044
:100ADC0000AF154B9B69144A43F001039361124B11
:100AEC009B6903F00103BB60BB680F4BDB690E4ACB
:100AFC0043F08053D3610C4BDB6903F080537B6074
:100B0C007B680A4B5B68FB60FB6823F0E063FB606F
:100B1C00FB6843F08063FB60044AFB68536000BFD2
:100B2C001437BD4680BC70470010024000000140E5
:100B3C0080B588B000AF786007F1100300221A600E
:100B4C005A609A60DA607B681B681C4A934231D108
:100B5C001B4B9B691A4A43F480439361184B9B6966
:100B6C0003F48043FB60FB68154B9B69144A43F00C
:100B7C0004039361124B9B6903F00403BB60BB68D5
:100B8C004FF400733B6102237B610323FB6107F18C
:100B9C00100319460B4800F049FA4FF480633B618F
:100BAC0000237B610023BB6107F110031946054844
:100BBC0000F03CFA00BF2037BD4680BD0038014034
:100BCC00001002400008014080B400AF00BFFDE7F8
:100BDC0080B400AF00BFFDE780B400AF00BFFDE7FD
:100BEC0080B400AF00BFFDE780B400AF00BFFDE7ED
:100BFC0080B400AF00BFBD4680BC704780B400AF6E
:100C0C0000BFBD4680BC704780B400AF00BFBD467E
:100C1C0080BC704780B500AF00F0BAF800BF80BD53
:100C2C0080B500AF022000F0CDFB00BF80BD80B5C9
:100C3C0000AF4FF4007000F0C5FB00BF80BD00009A
:100C4C0080B586B000AF7860144A154BD31A7B611F
:100C5C007B693B61134B1B68002B02D1114B124A71
:100C6C001A60104B1A687B6813443A699A4207D28F
:100C7C0001F054FA03460C221A604FF0FF3309E0DE
:100C8C00084B1B68FB60074B1A687B681344054ACA
:100C9C001360FB6818461837BD4680BD0050002015
:100CAC00000400005C020020B003002080B400AF00
:100CBC0000BFBD4680BC7047FFF7F8FF0B480C49DE
:100CCC000C4A002302E0D458C4500433C4188C429C
:100CDC00F9D3094A094C002301E013600432A24203
:100CEC00FBD301F021FAFFF705FB70470000002051
:100CFC005C010020784200085C010020AC0300205D
:100D0C00FEE7000080B500AF084B1B68074A43F0B4
:100D1C0010031360032000F047F90F2000F008F8CF
:100D2C00FFF7D4FE0023184680BD00BF0020024010
:100D3C0080B582B000AF7860124B1A68124B1B78EA
:100D4C0019464FF47A73B3FBF1F3B2FBF3F3184685
:100D5C0000F05FF90346002B01D001230EE07B6805
:100D6C000F2B0AD8002279684FF0FF3000F027F9DA
:100D7C00064A7B681360002300E0012318460837FD
:100D8C00BD4680BD000100200801002004010020A8
:100D9C0080B400AF054B1B781A46054B1B681344F7
:100DAC00034A136000BFBD4680BC70470801002099
:100DBC006002002080B400AF024B1B681846BD4691
:100DCC0080BC70476002002080B584B000AF7860B2
:100DDC00FFF7F0FFB8607B68FB60FB68B3F1FF3F87
:100DEC0005D00A4B1B781A46FB681344FB6000BF06
:100DFC00FFF7E0FF0246BB68D31AFA689A42F7D8AD
:100E0C0000BF00BF1037BD4680BD00BF08010020E9
:100E1C0080B485B000AF78607B6803F00703FB609B
:100E2C000C4BDB68BB60BA684FF6FF031340BB602A
:100E3C00FB681A02BB68134343F0BF6343F40033EF
:100E4C00BB60044ABB68D36000BF1437BD4680BC8E
:100E5C00704700BF00ED00E080B400AF044BDB68CE
:100E6C001B0A03F007031846BD4680BC704700BF41
:100E7C0000ED00E080B483B000AF0346FB7197F93E
:100E8C000730002B0BDBFB7903F01F02064997F9A7
:100E9C0007305B09012000FA02F241F8232000BF61
:100EAC000C37BD4680BC704700E100E080B483B0D5
:100EBC0000AF03463960FB7197F90730002B0ADB52
:100ECC003B68DAB20C4997F907301201D2B20B44E5
:100EDC0083F800230AE03B68DAB20849FB7903F097
:100EEC000F03043B1201D2B20B441A7600BF0C372D
:100EFC00BD4680BC704700BF00E100E000ED00E0A3
:100F0C0080B489B000AFF860B9607A60FB6803F018
:100F1C000703FB61FB69C3F10703042B28BF042300
:100F2C00BB61FB690433062B02D9FB69033B00E070
:100F3C0000237B614FF0FF32BB6902FA03F3DA4303
:100F4C00BB681A407B699A404FF0FF317B6901FA0C
:100F5C0003F3D9437B680B40134318462437BD4633
:100F6C0080BC704780B582B000AF78607B68013B75
:100F7C00B3F1807F01D301230FE00A4A7B68013B68
:100F8C0053600F214FF0FF30FFF790FF054B00220D
:100F9C009A60044B07221A60002318460837BD4696
:100FAC0080BD00BF10E000E080B582B000AF78607B
:100FBC007868FFF72DFF00BF0837BD4680BD80B5B0
:100FCC0086B000AF0346B9607A60FB7300237B6187
:100FDC00FFF742FF78617A68B9687869FFF790FF8C
:100FEC00024697F90F3011461846FFF75FFF00BF16
:100FFC001837BD4680BD80B582B000AF0346FB718B
:10100C0097F907301846FFF735FF00BF0837BD4684
:10101C0080BD80B582B000AF78607868FFF7A2FF22
:10102C00034618460837BD4680BD000080B48BB01F
:10103C0000AF7860396000237B6200233B6269E17A
:10104C0001227B6A02FA03F3FB613B681B68FA69B5
:10105C001340BB61BA69FB699A4240F058813B6806
:10106C005B689A4A93425ED0984A934275D8984AE4
:10107C00934258D0964A93426FD8964A934252D094
:10108C00944A934269D8944A93424CD0924A9342E0
:10109C0063D8924A934246D0904A93425DD8122B21
:1010AC002AD8122B59D801A252F823F03311000878
:1010BC000D1100081F1100086111000867110008CC
:1010CC006711000867110008671100086711000814
:1010DC006711000867110008671100086711000804
:1010EC0067110008671100086711000867110008F4
:1010FC001511000829110008794A934213D02CE0ED
:10110C003B68DB683B6229E03B68DB6804333B628D
:10111C0024E03B68DB6808333B621FE03B68DB681C
:10112C000C333B621AE03B689B68002B02D1042312
:10113C003B6213E03B689B68012B05D108233B62A3
:10114C007B68FA691A6109E008233B627B68FA69DB
:10115C005A6103E000233B6200E000BFBB69FF2B38
:10116C0001D87B6801E07B6804337B61BB69FF2B92
:10117C0002D87B6A9B0002E07B6A083B9B003B61C8
:10118C007B691A680F213B6901FA03F3DB431A40B0
:10119C00396A3B6901FA03F31A437B691A603B68AD
:1011AC005B6803F08053002B00F0B1804D4B9B69C2
:1011BC004C4A43F0010393614A4B9B6903F00103D2
:1011CC00BB60BB68484A7B6A9B08023352F82330E9
:1011DC00FB607B6A03F003039B000F2202FA03F30C
:1011EC00DB43FA681340FB607B68404A934213D0A0
:1011FC007B683F4A93420DD07B683E4A934207D0AE
:10120C007B683D4A934201D1032306E0042304E0AA
:10121C00022302E0012300E000237A6A02F00302B9
:10122C0092009340FA681343FB602F497B6A9B083A
:10123C000233FA6841F823203B685B6803F480139F
:10124C00002B06D02D4B9A682C49BB6913438B603D
:10125C0006E02A4B9A68BB69DB43284913408B6034
:10126C003B685B6803F40013002B06D0234BDA6851
:10127C002249BB691343CB6006E0204BDA68BB699B
:10128C00DB431E491340CB603B685B6803F40033BF
:10129C00002B06D0194B5A681849BB6913434B6095
:1012AC0006E0164B5A68BB69DB43144913404B608C
:1012BC003B685B6803F48033002B21D00F4B1A681A
:1012CC000E49BB6913430B6021E000BF00003210D4
:1012DC00000031100000221000002110000012103C
:1012EC0000001110001002400000014000080140F5
:1012FC00000C0140001001400014014000040140AA
:10130C000B4B1A68BB69DB43094913400B607B6AC2
:10131C0001337B623B681A687B6A22FA03F3002B69
:10132C007FF48EAE00BF00BF2C37BD4680BC70472B
:10133C000004014080B485B000AF78600B467B8020
:10134C007B689A687B881340002B02D00123FB73C7
:10135C0001E00023FB73FB7B18461437BD4680BCB1
:10136C00704780B483B000AF78600B467B80134627
:10137C007B707B78002B03D07A887B681A6103E042
:10138C007B881A047B681A6100BF0C37BD4680BC91
:10139C00704780B485B000AF78600B467B807B686B
:1013AC00DB68FB607A88FB6813401A04FB68D9433E
:1013BC007B880B401A437B681A6100BF1437BD460B
:1013CC0080BC704780B582B000AF0346FB80084BF1
:1013DC005A69FB881340002B06D0054AFB885361E1
:1013EC00FB881846FFF7ECF800BF0837BD4680BDF8
:1013FC000004014080B586B000AF78607B68002B9C
:10140C0001D1012372E27B681B6803F00103002BFE
:10141C0000F08780924B5B6803F00C03042B0CD01C
:10142C008F4B5B6803F00C03082B12D18C4B5B6861
:10143C0003F48033B3F5803F0BD1894B1B6803F465
:10144C000033002B6CD07B685B68002B68D10123C8
:10145C004CE27B685B68B3F5803F06D1804B1B6820
:10146C007F4A43F4803313602EE07B685B68002B6B
:10147C000CD17B4B1B687A4A23F480331360784B76
:10148C001B68774A23F4802313601DE07B685B683C
:10149C00B3F5A02F0CD1724B1B68714A43F4802317
:1014AC0013606F4B1B686E4A43F4803313600BE080
:1014BC006B4B1B686A4A23F480331360684B1B68C0
:1014CC00674A23F4802313607B685B68002B13D07E
:1014DC00FFF770FC386108E0FFF76CFC02463B69D3
:1014EC00D31A642B01D9032300E25D4B1B6803F470
:1014FC000033002BF0D014E0FFF75CFC386108E0FF
:10150C00FFF758FC02463B69D31A642B01D903231D
:10151C00ECE1534B1B6803F40033002BF0D100E0DB
:10152C0000BF7B681B6803F00203002B63D04C4B9D
:10153C005B6803F00C03002B0BD0494B5B6803F08A
:10154C000C03082B1CD1464B5B6803F48033002B37
:10155C0016D1434B1B6803F00203002B05D07B68AC
:10156C001B69012B01D00123C0E13D4B1B6823F00B
:10157C00F8027B685B69DB00394913430B603AE086
:10158C007B681B69002B20D0364B01221A60FFF7B9
:10159C0011FC386108E0FFF70DFC02463B69D31AD9
:1015AC00022B01D90323A1E12D4B1B6803F002038D
:1015BC00002BF0D02A4B1B6823F0F8027B685B6988
:1015CC00DB00274913430B6015E0264B00221A6001
:1015DC00FFF7F0FB386108E0FFF7ECFB02463B69D4
:1015EC00D31A022B01D9032380E11D4B1B6803F096
:1015FC000203002BF0D17B681B6803F00803002B5F
:10160C003AD07B689B69002B19D0174B01221A60CA
:10161C00FFF7D0FB386108E0FFF7CCFB02463B69D3
:10162C00D31A022B01D9032360E10D4B5B6A03F043
:10163C000203002BF0D0012000F0CEFA1CE00A4B84
:10164C0000221A60FFF7B6FB38610FE0FFF7B2FB20
:10165C0002463B69D31A022B08D9032346E100BF8B
:10166C00001002400000424280044242924B5B6AEE
:10167C0003F00203002BE9D17B681B6803F0040321
:10168C00002B00F0A6800023FB758B4BDB6903F06D
:10169C008053002B0DD1884BDB69874A43F0805374
:1016AC00D361854BDB6903F08053BB60BB680123BE
:1016BC00FB75824B1B6803F48073002B18D17F4B96
:1016CC001B687E4A43F480731360FFF773FB386129
:1016DC0008E0FFF76FFB02463B69D31A642B01D974
:1016EC00032303E1754B1B6803F48073002BF0D0CC
:1016FC007B68DB68012B06D16F4B1B6A6E4A43F08B
:10170C00010313622DE07B68DB68002B0CD16A4B64
:10171C001B6A694A23F001031362674B1B6A664A12
:10172C0023F0040313621CE07B68DB68052B0CD1EF
:10173C00614B1B6A604A43F0040313625E4B1B6AE5
:10174C005D4A43F0010313620BE05B4B1B6A5A4A80
:10175C0023F001031362584B1B6A574A23F004030E
:10176C0013627B68DB68002B15D0FFF723FB386115
:10177C000AE0FFF71FFB02463B69D31A41F288329D
:10178C00934201D90323B1E04B4B1B6A03F00203D4
:10179C00002BEED014E0FFF70DFB38610AE0FFF7E9
:1017AC0009FB02463B69D31A41F28832934201D9B4
:1017BC0003239BE0404B1B6A03F00203002BEED18A
:1017CC00FB7D012B05D13C4BDB693B4A23F080535D
:1017DC00D3617B68DB69002B00F08780364B5B683C
:1017EC0003F00C03082B61D07B68DB69022B46D11C
:1017FC00334B00221A60FFF7DDFA386108E0FFF77F
:10180C00D9FA02463B69D31A022B01D903236DE0A6
:10181C00294B1B6803F00073002BF0D17B681B6A0B
:10182C00B3F5803F08D1244B5B6823F400327B680E
:10183C009B68214913434B601F4B5B6823F4741264
:10184C007B68196A7B685B6A0B431B4913434B60CB
:10185C001B4B01221A60FFF7ADFA386108E0FFF765
:10186C00A9FA02463B69D31A022B01D903233DE0A6
:10187C00114B1B6803F00073002BF0D035E0104BBC
:10188C0000221A60FFF796FA386108E0FFF792FA27
:10189C0002463B69D31A022B01D9032326E0064BDF
:1018AC001B6803F00073002BF0D11EE07B68DB6932
:1018BC00012B07D1012319E00010024000700040F9
:1018CC00600042420B4B5B68FB60FB6803F48032A8
:1018DC007B681B6A9A4206D1FB6803F470127B6822
:1018EC005B6A9A4201D0012300E0002318461837A6
:1018FC00BD4680BD0010024080B584B000AF78605A
:10190C0039607B68002B01D10123D0E06A4B1B6846
:10191C0003F007033A689A4210D9674B1B6823F00F
:10192C00070265493B6813430B60634B1B6803F06C
:10193C0007033A689A4201D00123B8E07B681B6820
:10194C0003F00203002B20D07B681B6803F0040318
:10195C00002B05D0594B5B68584A43F4E063536045
:10196C007B681B6803F00803002B05D0534B5B68A6
:10197C00524A43F460535360504B5B6823F0F002BF
:10198C007B689B684D4913434B607B681B6803F075
:10199C000103002B40D07B685B68012B07D1474BC0
:1019AC001B6803F40033002B15D101237FE07B6807
:1019BC005B68022B07D1414B1B6803F00073002BB3
:1019CC0009D1012373E03D4B1B6803F00203002B8C
:1019DC0001D101236BE0394B5B6823F003027B6878
:1019EC005B68364913434B60FFF7E4F9F8600AE093
:1019FC00FFF7E0F90246FB68D31A41F288329342B2
:101A0C0001D9032353E02D4B5B6803F00C027B6878
:101A1C005B689B009A42EBD1274B1B6803F00703D2
:101A2C003A689A4210D2244B1B6823F007022249D1
:101A3C003B6813430B60204B1B6803F007033A68A9
:101A4C009A4201D0012332E07B681B6803F0040347
:101A5C00002B08D0194B5B6823F4E0627B68DB68D1
:101A6C00164913434B607B681B6803F00803002B7B
:101A7C0009D0124B5B6823F460527B681B69DB0056
:101A8C000E4913434B6000F021F802460B4B5B6888
:101A9C001B0903F00F030A49CB5C22FA03F3094A32
:101AAC001360094B1B681846FFF742F900231846D0
:101ABC001037BD4680BD00BF002002400010024020
:101ACC0008420008000100200401002080B487B007
:101ADC0000AF0023FB600023BB6000237B6100236D
:101AEC007B6000233B611E4B5B68FB60FB6803F073
:101AFC000C03042B02D0082B03D027E0194B3B61BD
:101B0C0027E0FB689B0C03F00F03174AD35C7B6048
:101B1C00FB6803F48033002B10D0114B5B685B0C1B
:101B2C0003F00103114AD35CBB607B680D4A03FBD5
:101B3C0002F2BB68B2FBF3F37B6104E07B680C4AF6
:101B4C0002FB03F37B617B693B6102E0054B3B616C
:101B5C0000BF3B6918461C37BD4680BC704700BFB0
:101B6C000010024000127A002042000830420008A7
:101B7C0000093D0080B400AF024B1B681846BD46FF
:101B8C0080BC70470001002080B500AFFFF7F2FF6A
:101B9C000246054B5B681B0A03F007030349CB5C49
:101BAC0022FA03F3184680BD0010024018420008C8
:101BBC0080B500AFFFF7DEFF0246054B5B68DB0A22
:101BCC0003F007030349CB5C22FA03F3184680BDEC
:101BDC00001002401842000880B485B000AF786055
:101BEC000A4B1B680A4AA2FB03235B0A7A6802FBB6
:101BFC0003F3FB6000BFFB685A1EFA60002BF9D19F
:101C0C0000BF00BF1437BD4680BC704700010020E8
:101C1C00D34D621080B582B000AF78607B68002B2A
:101C2C0001D1012342E07B6893F84130DBB2002BF9
:101C3C0006D17B68002283F840207868FEF778FF95
:101C4C007B68242283F841207B681B68DA687B68F8
:101C5C001B6822F40052DA60786800F071F97B6836
:101C6C001B681A697B681B6822F490421A617B68B6
:101C7C001B685A697B681B6822F02A025A617B68D0
:101C8C001B68DA687B681B6842F40052DA607B6878
:101C9C0000225A647B68202283F841207B68202232
:101CAC0083F842207B6800225A63002318460837C9
:101CBC00BD4680BD80B58AB002AFF860B9603B60AC
:101CCC001346FB8000237B61FB6893F84130DBB249
:101CDC00202B75D1BB68002B02D0FB88002B01D1C7
:101CEC0001236EE0FB6800225A64FB68212283F812
:101CFC004120FFF75FF87861FB68FA889A84FB68EB
:101D0C00FA88DA84FB689B68B3F5805F08D1FB68BE
:101D1C001B69002B04D10023FB61BB68BB6103E092
:101D2C00BB68FB610023BB612EE03B6800937B69C1
:101D3C0000228021F86800F048F80346002B05D0FB
:101D4C00FB68202283F8412003233AE0FB69002B37
:101D5C000BD1BB691B881A46FB681B68C2F30802CF
:101D6C005A60BB690233BB6107E0FB691A78FB68F8
:101D7C001B685A60FB690133FB61FB68DB8C9BB20F
:101D8C00013B9AB2FB68DA84FB68DB8C9BB2002BBC
:101D9C00CBD13B6800937B6900224021F86800F0AE
:101DAC0014F80346002B05D0FB68202283F8412051
:101DBC00032306E0FB68202283F84120002300E087
:101DCC00022318462037BD4680BD80B586B000AFD3
:101DDC00F860B9603B601346FB713BE03B6AB3F1C2
:101DEC00FF3F37D0FEF7E6FF02463B68D31A3A6A4C
:101DFC009A4202D33B6A002B01D103233AE0FB68E1
:101E0C001B68DB6803F00403002B23D0BB68802B1A
:101E1C0020D0BB68402B1DD0FB681B681B6803F0EF
:101E2C000803082B16D100237B61FB681B681B6819
:101E3C007B61FB681B685B687B617B69F86800F001
:101E4C001DF8FB6808225A64FB68002283F84020C6
:101E5C0001230FE0FB681B681A68BB681340BA6863
:101E6C009A420CBF01230023DBB21A46FB799A423B
:101E7C00B4D0002318461837BD4680BD80B495B049
:101E8C0000AF78607B681B680C337B637B6B53E81B
:101E9C00003F3B633B6B23F49073FB647B681B68D4
:101EAC000C33FA6C3A64FB63F96B3A6C41E800232F
:101EBC00BB63BB6B002BE5D17B681B6814333B62A7
:101ECC003B6A53E8003FFB61FB6923F00103BB64F1
:101EDC007B681B681433BA6CFA62BB62B96AFA6A23
:101EEC0041E800237B627B6A002BE5D17B681B6B8E
:101EFC00012B19D17B681B680C33FB60FB6853E822
:101F0C00003FBB60BB6823F010037B647B681B68DD
:101F1C000C337A6CBA617B617969BA6941E8002348
:101F2C003B613B69002BE5D17B68202283F8422082
:101F3C007B6800221A6300BF5437BD4680BC7047D3
:101F4C0080B584B000AF78607B681B681B6923F494
:101F5C0040517B68DA687B681B680A431A617B68AE
:101F6C009A687B681B691A437B685B691343BB6087
:101F7C007B681B68DB6823F4B05323F00C037A688E
:101F8C001268B9680B43D3607B681B685B6923F4E8
:101F9C0040717B689A697B681B680A435A617B684D
:101FAC001B682C4A934203D1FFF702FEF86002E053
:101FBC00FFF7EAFDF860FA6813469B0013449A0099
:101FCC001A447B685B689B00B2FBF3F3224AA2FBCA
:101FDC0003235B091901FA6813469B0013449A000A
:101FEC001A447B685B689B00B2FBF3F21A4BA3FBB1
:101FFC0002035B09642000FB03F3D31A1B01323389
:10200C00154AA2FB03235B0903F0F0031944FA6899
:10201C0013469B0013449A001A447B685B689B0030
:10202C00B2FBF3F20C4BA3FB02035B09642000FB35
:10203C0003F3D31A1B013233074AA2FB03235B09B8
:10204C0003F00F027B681B680A449A6000BF1037CC
:10205C00BD4680BD003801401F85EB510CB430B536
:10206C00184B0C1E1D689DB008DA8B234FF0FF3007
:10207C002B601DB0BDE8304002B070474FF40273C6
:10208C00ADF814304FF000031B930CBF234604F142
:10209C00FF33049307934FF6FF7302900690ADF84D
:1020AC001630284621AB209A02A9019300F0B4F90E
:1020BC00431CBCBF8B232B60002CDAD00022029B6C
:1020CC001A70D6E70C0100200EB46FF0004110B569
:1020DC0000249DB01FAB0290069007910491094813
:1020EC00094953F8042B0591006802A901931B942C
:1020FC0000F092F9029B1C701DB0BDE8104003B0BB
:10210C00704700BF0C0100200802FFFF0346024489
:10211C00934200D1704703F8011BF9E7014B186893
:10212C00704700BF0C01002070B500260C4D0D4C03
:10213C00641BA410A64209D100F076FC00260A4DBF
:10214C000A4C641BA410A64205D170BD55F8043B83
:10215C0098470136EEE755F8043B98470136F2E70D
:10216C007042000870420008704200087442000877
:10217C007047704738B50546002940D051F8043CEB
:10218C000C1F002BB8BFE41800F0DEF81C4A1368D3
:10219C0033B9636014602846BDE8384000F0DAB803
:1021AC00A34208D9206821188B4201BF19685B68CB
:1021BC0009182160EDE71A465B680BB1A342FAD906
:1021CC0011685018A0420BD120680144501883426A
:1021DC001160E0D118685B68084410605360DAE75E
:1021EC0002D90C232B60D6E7206821188B4201BF43
:1021FC0019685B680918216063605460CBE738BDCF
:10220C00A803002070B50F4E0C463168054611B975
:10221C0000F0A8FB30602146284600F0A3FB431CCD
:10222C0003D14FF0FF34204670BDC41C24F00304CE
:10223C00A042F8D0211A284600F094FB0130F2D1CC
:10224C00EFE700BFA40300202DE9F843CD1C25F0D7
:10225C00030508350C2D38BF0C25002D064601DB77
:10226C00A94204D90C2333600020BDE8F883DFF8C1
:10227C00D48000F069F8D8F800301C4644BB2946DD
:10228C003046FFF7BFFF431C044658D1D8F8004036
:10229C002746002F43D1002C4BD0236839463046BB
:1022AC0004EB030900F05EFB814542D12168304606
:1022BC006D1A2946FFF7A6FF01303AD023682B444C
:1022CC002360D8F800305A6862BBC8F800700FE081
:1022DC002268521B20D40B2A17D96119A3422560FE
:1022EC0018BF5960636808BFC8F8001062514B6092
:1022FC00304600F02FF804F10B00231D20F00700EE
:10230C00C21A1CBF1B1AA350AFE76268A3420CBFD2
:10231C00C8F800205A60EBE723466468AEE73C46F9
:10232C007F68B6E71A465B68A342FBD10023536073
:10233C00DEE70C233046336000F00CF894E70560C0
:10234C00D6E700BFA80300200148FFF711BF00BF6C
:10235C00A00300200148FFF70CBF00BFA003002022
:10236C002DE9F0471F468E688246BE420C469046C9
:10237C000B682DD8B1F90C2012F4906F26D065693A
:10238C00096905EB4505A3EB010905EBD5757B1C2C
:10239C004B446D109D4238BF1D46530527D5294629
:1023AC00FFF752FF064660B34A46216900F0F8FA7F
:1023BC00A38923F4906343F08003A38126614E44E8
:1023CC0026603E466561A5EB0905A560BE4200D9B5
:1023DC003E4632464146206800F0AAFA0020A36827
:1023EC009B1BA360236833442360BDE8F0872A4617
:1023FC0000F0E4FA06460028E0D150462169FFF7C8
:10240C00B9FE0C23CAF80030A3894FF0FF3043F01B
:10241C004003A381E9E700002DE9F04F98468B8932
:10242C0007461B060D4614469DB010D50B6973B9B3
:10243C004021FFF709FF2860286130B90C233B606D
:10244C004FF0FF301DB0BDE8F08F40236B610023CF
:10245C00099320238DF8293030234FF00109CDF852
:10246C000C80DFF898818DF82A3023469A4613F8B1
:10247C00012B0AB1252AF9D1BAEB040B0BD05B4620
:10248C00224629463846FFF76BFF013000F0A78043
:10249C00099A5A4409929AF80030002B00F09F8058
:1024AC0000234FF0FF32CDE905230AF1010A049312
:1024BC0007938DF853301A935446052214F8011BD8
:1024CC004E4800F05FFA049AD8B9D00644BF2023D6
:1024DC008DF85330110744BF2B238DF853309AF8E5
:1024EC0000302A2B15D0544600204FF00A0C079AC6
:1024FC00214611F8013B303B092B4BD9B0B1079267
:10250C0014E0A0EB080309FA03F31343A246049367
:10251C00D2E7039B191D1B680391002BBBBF5B42C9
:10252C0042F0020207930793B8BF049223782E2B34
:10253C000AD163782A2B32D1039B02341A1D1B68F3
:10254C00039243EAE3730593DFF8B4A003225046E9
:10255C00217800F017FA38B14022049BA0EB0A0056
:10256C00824013430134049314F8011B06222548BE
:10257C008DF8281000F006FA002836D0224B1BBB31
:10258C00039B073323F0070308330393099B33445E
:10259C0009936AE70C4601200CFB0232A8E70023E2
:1025AC004FF00A0C194601340593204610F8012B04
:1025BC00303A092A03D9002BC6D00591C4E704464A
:1025CC0001230CFB0121F0E703AB00932A463846AC
:1025DC000E4B04A9AFF30080421C0646D6D1AB8942
:1025EC005B063FF52DAF09982CE703AB00932A4609
:1025FC003846064B04A900F07DF8EDE7324200089E
:10260C00384200083C420008000000006D2300081E
:10261C002DE9F047164698468A680B69074693429F
:10262C00B8BF1346336091F843200C46DDF8209078
:10263C000AB1013333602368990642BF3368023311
:10264C003360256815F0060506D104F1190AE36814
:10265C0032689B1AAB422BDC94F843302268003B67
:10266C0018BF0123920630D44146384604F1430288
:10267C00C847013023D02368226903F00603042BDA
:10268C0014BF002533684FF0000608BFE56804F15D
:10269C001A0408BFED1A54F8123C08BF25EAE57578
:1026AC009342C4BF9B1AED18B5421AD1002008E022
:1026BC000123524641463846C847013003D14FF0FA
:1026CC00FF30BDE8F0870135C1E73020E11881F813
:1026DC0043005A1C94F845102244023382F84310EC
:1026EC00C2E70123224641463846C8470130E6D0AE
:1026FC000136D9E72DE9FF470F7E9146782F8046AA
:10270C000C469A460C9E01F1430207D8622F0AD858
:10271C00002F00F0D180582F00F0B88004F1420651
:10272C0084F842703AE0A7F16303152BF6D801A1A7
:10273C0051F823F099270008AD2700082927000835
:10274C00292700082927000829270008AD27000899
:10275C00292700082927000829270008292700080D
:10276C00AB280008D727000865280008292700088F
:10277C0029270008CD28000829270008D72700089A
:10278C0029270008292700086D28000833681A1D1E
:10279C001B68326004F1420684F8423001239CE04D
:1027AC0033682068191D3160060601D51D6803E0E9
:1027BC004506FBD5B3F90050002D03DA2D236D42ED
:1027CC0084F843300A23584811E02168336808061E
:1027DC0053F8045B02D4490648BFADB26F2F336087
:1027EC0014BF0A2308235048002184F8431066685C
:1027FC00002EA66005DB21682E4321F00401216028
:10280C004BD01646B5FBF3F103FB1157C75D06F829
:10281C00017D2F46BB420D46F4D9082B0BD1236802
:10282C00DF0708D5236961689942DEBF302306F8BB
:10283C00013C06F1FF36921B22614B462146404675
:10284C00CDF800A003AAFFF7E3FE01304AD14FF008
:10285C00FF3004B0BDE8F087236843F02003236009
:10286C007827324884F84570236831681F0651F880
:10287C00045B02D45F0648BFADB23160D90744BFD8
:10288C0043F0200323601DB11023ADE72648E9E790
:10289C00236823F020032360F6E71646BDE7336870
:1028AC002568181D616930602E061B6801D51960FA
:1028BC0002E06806FBD51980002316462361BCE7AD
:1028CC00336800211A1D32601E686268304600F0C1
:1028DC0059F808B1801B606063682361002384F899
:1028EC004330AAE73246494640462369D047013077
:1028FC00ADD023689B0713D4E068039B9842B8BF04
:10290C001846A6E70123324649464046D0470130D7
:10291C009DD00135E36803995B1AAB42F2DCEBE71F
:10292C00002504F11906F5E743420008544200085B
:10293C00884210B501EB020402D98442234607D821
:10294C00431EA14208D011F8012B03F8012FF8E720
:10295C00014602448A4200D110BD13F8014D02F821
:10296C00014DF7E738B50023054D044608462B60AA
:10297C00FEF766F9431C02D12B6803B1236038BD06
:10298C009C030020034610B5C9B20244934218467A
:10299C0001D1002003E0047801338C42F6D110BD44
:1029AC000A44914200F1FF3300D1704710B511F881
:1029BC00014B914203F8014FF9D110BD2DE9F041C3
:1029CC00074614460D4621B91146BDE8F041FFF704
:1029DC003BBC2AB9FFF7CEFB25462846BDE8F08163
:1029EC0000F01AF88442064602D8B4EB500FF4D823
:1029FC0021463846FFF728FC804608B94546ECE7E7
:102A0C00B4422246294628BF3246FFF7C9FF294661
:102A1C003846FFF7AFFBF1E751F8043C181F002BC9
:102A2C00BCBF0B58C0187047F8B500BFF8BC08BC49
:102A3C009E467047F8B500BFF8BC08BC9E46704770
:102A4C004100000042000000430000004400000070
:102A5C004500000046000000470000004800000050
:102A6C00490000004A0000004B0000004C00000030
:102A7C004D0000004E0000004F0000005000000010
:102A8C0051000000520000005300000054000000F0
:102A9C0055000000560000005700000058000000D0
:102AAC00590000005A00000020000000080000003F
:102ABC000D0000000000000044454255475F4D4F9B
:102ACC0044455F4F46460D0A0000000061000000BF
:102ADC00620000006300000064000000650000005C
:102AEC00660000006700000068000000690000003C
:102AFC006A0000006B0000006C0000006D0000001C
:102B0C006E0000006F0000007000000071000000FB
:102B1C0072000000730000007400000075000000DB
:102B2C0076000000770000007800000079000000BB
:102B3C007A00000052756E74696D653A00000000F1
:102B4C0073656373000000000D0A426974733A20C8
:102B5C002575202575202575202575202575207C4B
:102B6C002056616C75653A202575207C2044656281
:102B7C007567205374617475733A202564207C202A
:102B8C00436170205374617475733A202564207C02
:102B9C00204C6174656E63793A20256C75206D73D9
:102BAC000D0A00002573000020202020202020206A
:102BBC002020202000000000256C75002020202003
:102BCC002020202020202020202020202000000059
:102BDC000D0A4445425547204D4F4445204F4E0069
:102BEC004B6579626F6172642053696D756C6174A9
:102BFC006F720D0A537461727420547970696E6728
:102C0C002048657265202D2D3E2000000D0A0920FC
:102C1C00202020205F202020202020202020202069
:102C2C0020202020202020202020202020205F0D6C
:102C3C000A09202020207C5F7C20202020202020BE
:102C4C002020205F5F5F5F5F20202020202020203D
:102C5C007C5F7C0D0A09202020207C207C202020F9
:102C6C0020202020202028205E5E5E20292020208D
:102C7C00202020207C207C0D0A092020205F7C2035
:102C8C007C5F20202020202020287C20276F2720DC
:102C9C007C2920202020205F7C207C5F0D0A0920CD
:102CAC005F7C207C207C207C5F2020202020202822
:102CBC005F2D2D5F5F29202020205F7C207C207CD5
:102CCC00207C5F0D0A7C207C207C207C207C207C5E
:102CDC00202020205F5F7C207C5F5F5F2020207C99
:102CEC00207C207C207C207C207C0D0A7C5F20209A
:102CFC002020202020207C2020202F205F2020201E
:102D0C00205F207C20207C5F5F202020205F5F5F85
:102D1C002F0D0A0920207C5F20202020202F20202E
:102D2C00202F202F207C2020207C7C207C20207CAD
:102D3C002020202F0D0A09202020207C5F20207CC1
:102D4C002020202F202F20207C202E207C207C2037
:102D5C007C5F7C20202F0D0A092020202020207C45
:102D6C005F207C5F2F202F2020207C7C597C7C20B6
:102D7C00207C5F5F5F5F2F0D0A0920202020202020
:102D8C0020207C5F5F5F2F202020207C7C207C7C9F
:102D9C002020202020200D0A092020202020202067
:102DAC002020202020202020202028292028290D08
:102DBC000A09202020202020202020202020202034
:102DCC002020207C7C207C7C0D0A092020202020C7
:102DDC0020202020202020202020206F6F4F204FEB
:102DEC006F6F0D0A0D0A20202020202D2D2D2D2D4A
:102DFC002D2D2D2D2D2D3E4920534149443C2D2D5B
:102E0C002D2D2D2D2D2D2D2D0D0A0000205F5F5FFA
:102E1C005F5F5F5F5F5F5F5F5F5F5F5F5F5F5F5FB6
:102E2C005F5F5F5F5F5F5F5F5F5F5F5F5F5F5F5FA6
:102E3C005F5F5F5F5F5F5F5F5F5F5F5F5F5F5F5F96
:102E4C005F5F5F5F5F5F5F5F5F5F5F5F5F5F5F5F86
:102E5C005F5F5F5F5F5F5F5F5F5F5F5F5F5F5F5F76
:102E6C005F5F5F5F5F5F5F5F5F5F5F5F5F5F5F5F66
:102E7C005F5F5F5F5F5F5F5F5F5F5F5F5F5F5F5F56
:102E8C005F5F5F5F5F5F5F5F5F5F5F5F5F5F5F5F46
:102E9C005F5F5F5F5F5F5F5F5F5F5F5F5F5F5F5F36
:102EAC005F5F5F5F5F5F5F5F5F5F5F5F5F5F5F5F26
:102EBC005F5F5F5F5F5F5F5F5F5F5F5F5F5F5F5F16
:102ECC005F5F5F5F5F5F5F5F5F5F5F5F5F0D0A7C90
:102EDC00202020205F5F20205F5F20205F5F20206C
:102EEC0020205F5F20202020202020202020202058
:102EFC002020202020202020205F5F202020202048
:102F0C0020202020202020202020202020202020B5
:102F1C0020202020202020202020202020202020A5
:102F2C00202020202020205F5F2020202020202017
:102F3C0020205F5F5F5F5F5F2020205F5F2020208D
:102F4C002020202020202020202020202020202075
:102F5C00202020202020205F5F20202020202020E7
:102F6C002020202020205F5F2020202020202020D7
:102F7C002020202020202020202020202020202045
:102F8C00205F5F20205F5F20202020202020202039
:102F9C007C0D0A7C2020207C20205C7C20205C7C0A
:102FAC0020205C20202F20205C202020202020208E
:102FBC002020202020202020202020207C20205C6D
:102FCC0020202020202020202020202020202020F5
:102FDC0020202020202020202020202020202020E5
:102FEC00202020202020202020207C20205C20203D
:102FFC0020202020202F2020202020205C207C201E
:10300C00205C202020202020202020202020202078
:10301C00202020202020202020207C20205C20200C
:10302C002020202020202020207C20205C202020FC
:10303C002020202020202020202020202020202084
:10304C00202020207C20205C7C20205C2020202044
:10305C00202020207C0D0A7C2020207C2024247C15
:10306C002024247C202424202F20202424205F5F53
:10307C005F5F5F5F2020205F5F202020205F5F204C
:10308C007C2024245F5F5F5F202020205F5F5F5FD8
:10309C005F5F202020205F5F5F5F5F5F202020202C
:1030AC005F5F5F5F5F5F202020205F5F5F5F7C2042
:1030BC0024242020202020207C202024242424248C
:1030CC00245C205C2424205F5F5F5F5F5F205F5F78
:1030DC005F5F2020205F5F202020205F5F207C200E
:1030EC00242420205F5F5F5F5F5F20205F7C2024B3
:1030FC00245F20202020205F5F5F5F5F5F20202007
:10310C00205F5F5F5F5F5F207C2024247C20242471
:10311C0020202020202020207C0D0A7C2020207CB8
:10312C002024247C2024247C2024242F20202424AC
:10313C00202F2020202020205C207C20205C2020A0
:10314C007C20205C7C202424202020205C20202F2C
:10315C002020202020205C20207C202020202020CB
:10316C005C20202F2020202020205C20202F2020BD
:10317C002020202024242020202020207C202424D7
:10318C005F5F5F5C24247C20205C7C20202020203E
:10319C00205C202020205C207C20205C20207C20B7
:1031AC00205C7C202424207C2020202020205C7C7F
:1031BC002020202424205C2020202F2020202020B0
:1031CC00205C20202F2020202020205C7C20242408
:1031DC007C20242420202020202020207C0D0A7CF0
:1031EC00202020205C2424205C24247C20242420E7
:1031FC00202424207C20202424242424245C7C20AF
:10320C00242420207C2024247C20242424242424D2
:10321C00245C7C20202424242424245C20205C2472
:10322C0024242424245C7C20202424242424245C92
:10323C007C2020242424242424242020202020200A
:10324C00205C2424202020205C207C2024247C2032
:10325C002424242424245C242424245C7C2024245E
:10326C0020207C2024247C20242420205C24242442
:10327C002424245C5C24242424242420207C20204A
:10328C002424242424245C7C20202424242424246A
:10329C005C5C2424205C242420202020202020205E
:1032AC007C0D0A7C20202020202020202020207C27
:1032BC002024242424245C207C202424202020204E
:1032CC0024247C20242420207C2024247C202424BE
:1032DC0020207C2024247C20242420207C202424B6
:1032EC00202F20202020202024247C202424202057
:1032FC00205C24247C20242420207C2024242020B6
:10330C0020202020205F5C2424242424245C7C2086
:10331C0024247C202424207C202424207C2024246D
:10332C007C20242420207C2024247C202424202F56
:10333C002020202020202424207C202424205F5F97
:10334C00207C20242420207C2024247C2024242045
:10335C0020205C242420202020202020202020201D
:10336C00202020207C0D0A7C2020202020202020C2
:10337C002020207C202424205C24245C7C202424F9
:10338C002424242424247C2024245F5F2F20242420
:10339C007C2024245F5F2F2024247C2024245F5F46
:1033AC002F2024247C2020242424242424247C2026
:1033BC0024242020202020207C2024245F5F7C20BB
:1033CC0024242020202020207C20205C5F5F7C2077
:1033DC0024247C2024247C202424207C20242420AD
:1033EC007C2024247C2024245F5F2F2024247C2018
:1033FC0024247C202024242424242424207C2024E1
:10340C00247C20205C7C2024245F5F2F2024247CBF
:10341C002024242020202020202020202020202098
:10342C0020202020202020207C0D0A7C2020202001
:10343C00202020202020207C20242420205C2424D8
:10344C005C5C242420202020205C205C2424202070
:10345C00202024247C202424202020202424205CB0
:10346C002424202020202424205C242420202020FC
:10347C0024247C202424202020202020205C242490
:10348C00202020202424202020202020205C2424E4
:10349C002020202024247C2024247C202424207CF4
:1034AC00202424207C202424205C24242020202060
:1034BC0024247C202424205C242420202020242448
:1034CC0020205C242420202424205C242420202060
:1034DC002024247C20242420202020202020202074
:1034EC002020202020202020202020207C0D0A7C41
:1034FC002020202020202020202020205C2424207C
:10350C0020205C2424205C24242424242424205FD4
:10351C005C24242424242424205C242424242424F3
:10352C00242020205C2424242424242020205C24F7
:10353C00242424242424205C242420202020202023
:10354C0020205C2424242424242420202020202017
:10355C0020205C24242424242420205C2424205C8B
:10356C00242420205C242420205C242420205C247F
:10357C00242424242420205C242420205C2424249F
:10358C00242424242020205C242424242020205C97
:10359C0024242424242420205C24242020202020C3
:1035AC00202020202020202020202020202020200F
:1035BC007C0D0A7C20202020202020202020202070
:1035CC0020202020202020202020202020202020EF
:1035DC0020207C20205C5F5F7C2024242020202065
:1035EC0020202020202020202020202020202020CF
:1035FC0020202020202020202020202020202020BF
:10360C0020202020202020202020202020202020AE
:10361C00202020202020202020202020202020209E
:10362C00202020202020202020202020202020208E
:10363C00202020202020202020202020202020207E
:10364C00202020202020202020202020202020206E
:10365C00202020202020202020202020202020205E
:10366C00202020202020202020202020202020204E
:10367C00202020207C0D0A7C2020202020202020AF
:10368C00202020202020202020202020202020202E
:10369C00202020202020205C2424202020202424D2
:1036AC00202020202020202020202020202020200E
:1036BC0020202020202020202020202020202020FE
:1036CC0020202020202020202020202020202020EE
:1036DC0020202020202020202020202020202020DE
:1036EC0020202020202020202020202020202020CE
:1036FC0020202020202020202020202020202020BE
:10370C0020202020202020202020202020202020AD
:10371C00202020202020202020202020202020209D
:10372C00202020202020202020202020202020208D
:10373C0020202020202020207C0D0A7C20202020EE
:10374C00202020202020202020202020202020206D
:10375C002020202020202020202020205C24242415
:10376C002424242020202020202020202020202041
:10377C00202020202020202020202020202020203D
:10378C00202020202020202020202020202020202D
:10379C00202020202020202020202020202020201D
:1037AC00202020202020202020202020202020200D
:1037BC0020202020202020202020202020202020FD
:1037CC0020202020202020202020202020202020ED
:1037DC0020202020202020202020202020202020DD
:1037EC0020202020202020202020202020202020CD
:1037FC002020202020202020202020207C0D0A7C2E
:10380C0020202020202020202020202020202020AC
:10381C00202020202020202020202020202020209C
:10382C00202020205F5F202020202020202020200E
:10383C0020202020202020205F5F202020202020FE
:10384C00202020202020202020202020202020206C
:10385C002020205F5F5F5F5F5F20202020202020E2
:10386C0020205F5F202020205F5F20202020202050
:10387C005F5F2020202020202020202020202020BE
:10388C00202020202020202020202020202020202C
:10389C00202020202020202020202020202020201C
:1038AC00202020202020202020202020202020200C
:1038BC0020202020202020202020202020202020FC
:1038CC007C0D0A7C2020202020202020202020205D
:1038DC0020202020202020202020202020202020DC
:1038EC00202020202020207C20205C202020202034
:1038FC0020202020202020202020207C20205C2024
:10390C0020202020202020202020202020202020AB
:10391C002020202020202F2020202020205C202050
:10392C0020202020207C20205C20207C20205C205B
:10393C002020207C20205C202020202020202020E3
:10394C00202020202020202020202020202020206B
:10395C00202020202020202020202020202020205B
:10396C00202020202020202020202020202020204B
:10397C00202020202020202020202020202020203B
:10398C00202020207C0D0A7C2020202020205F5F1E
:10399C005F5F5F5F205F5F5F5F202020205F5F5F66
:1039AC005F5F5F202020205F5F5F5F7C20242420EE
:1039BC00205F5F5F5F5F5F20202020202020207C25
:1039CC002024245F5F5F5F2020205F5F2020202069
:1039DC005F5F202020202020207C202024242424F1
:1039EC0024245C20205F5F5F5F7C202424205F7C8C
:1039FC002024245F202020205C2424205F5F2020B2
:103A0C0020205F5F2020205F5F5F5F5F5F202020B2
:103A1C00202020202020202020202020202020209A
:103A2C00202020202020202020202020202020208A
:103A3C00202020202020202020202020202020207A
:103A4C0020202020202020207C0D0A7C20202020DB
:103A5C00207C2020202020205C202020205C202086
:103A6C007C2020202020205C20202F2020202020A3
:103A7C00202424202F2020202020205C20202020E7
:103A8C002020207C202424202020205C207C20202E
:103A9C005C20207C20205C2020202020207C2024E6
:103AAC00245F5F7C202424202F2020202020202411
:103ABC00247C2020202424205C20207C20205C7C62
:103ACC0020205C20207C20205C207C2020202020BA
:103ADC00205C20202020202020202020202020209E
:103AEC0020202020202020202020202020202020CA
:103AFC0020202020202020202020202020202020BA
:103B0C002020202020202020202020207C0D0A7C1A
:103B1C0020202020207C202424242424245C2424E1
:103B2C0024245C20205C2424242424245C7C202059
:103B3C00242424242424247C2020242424242424E9
:103B4C005C2020202020207C2024242424242424B5
:103B5C005C7C20242420207C202424202020202055
:103B6C00207C2024242020202024247C2020242479
:103B7C002424242424205C24242424242420207C75
:103B8C002024247C20242420207C20242420205C1D
:103B9C002424242424245C202020202020202020C5
:103BAC002020202020202020202020202020202009
:103BBC0020202020202020202020202020202020F9
:103BCC0020202020202020202020202020202020E9
:103BDC007C0D0A7C20202020207C202424207C208A
:103BEC002424207C202424202F202020202020244A
:103BFC00247C20242420207C2024247C2024242089
:103C0C0020202024242020202020207C202424203C
:103C1C00207C2024247C20242420207C202424206C
:103C2C0020202020207C2024242424242424247CB0
:103C3C0020242420207C20242420207C20242420A8
:103C4C005F5F207C2024247C20242420207C2024C2
:103C5C0024202F202020202020242420202020203D
:103C6C002020202020202020202020202020202048
:103C7C002020202020202020202020202020202038
:103C8C002020202020202020202020202020202028
:103C9C00202020207C0D0A7C20202020207C202429
:103CAC0024207C202424207C2024247C20202424D8
:103CBC0024242424247C2024245F5F7C2024247C42
:103CCC002024242424242424242020202020207C6C
:103CDC002024245F5F2F2024247C2024245F5F2F4A
:103CEC002024242020202020207C20242420207C00
:103CFC002024247C2024245F5F7C20242420207C0E
:103D0C002024247C20205C7C2024247C2024245F00
:103D1C005F2F2024247C20202424242424242420C9
:103D2C002020202020202020202020202020202087
:103D3C002020202020202020202020202020202077
:103D4C0020202020202020202009092009202020AC
:103D5C0020202020202020202020207C0D0A7C20C8
:103D6C00202020207C202424207C202424207C2023
:103D7C002424205C2424202020202424205C24249F
:103D8C00202020202424205C242420202020205C9F
:103D9C002020202020207C202424202020202424AB
:103DAC00205C2424202020202424202020202020BB
:103DBC007C20242420207C202424205C24242020EB
:103DCC00202024242020205C2424202024247C2037
:103DDC002424205C2424202020202424205C24243F
:103DEC0020202020242420202020202020202020BF
:103DFC0020202020202020202020202020202020B7
:103E0C0020202020202020202020202020202020A6
:103E1C0020202020202009092020202020202020C4
:103E2C00207C0D0A7C2020202020205C24242020B3
:103E3C005C242420205C242420205C24242424249E
:103E4C00242420205C2424242424242420205C24C6
:103E5C00242424242424202020202020205C2424FA
:103E6C00242424242420205F5C242424242424249B
:103E7C00202020202020205C24242020205C2424AE
:103E8C0020205C24242424242424202020205C248E
:103E9C0024242420205C2424205F5C242424242437
:103EAC00242420205C2424242424242420202020A6
:103EBC0020202020202020202020202020202020F6
:103ECC0020202020202020202020202020202020E6
:103EDC0020202020202020202020202020202020D6
:103EEC0020202020207C0D0A7C2020202020202037
:103EFC0020202020202020202020202020202020B6
:103F0C0020202020202020202020202020202020A5
:103F1C002020202020202020202020202020202095
:103F2C00202020202020202020207C20205C5F5F6F
:103F3C007C20242420202020202020202020202011
:103F4C002020202020202020202020202020202065
:103F5C002020202020202020202020207C20205CBD
:103F6C005F5F7C2024242020202020202020202063
:103F7C002020202020202020202020202020202035
:103F8C002020202020202020202020202020202025
:103F9C002020202020202020202020202020202015
:103FAC002020202020202020207C0D0A7C20202076
:103FBC0020202020202020202020202020202020F5
:103FCC0020202020202020202020202020202020E5
:103FDC0020202020202020202020202020202020D5
:103FEC002020202020202020202020202020205C89
:103FFC0024242020202024242020202020202020A5
:10400C0020202020202020202020202020202020A4
:10401C002020202020202020202020202020202094
:10402C00205C242420202020242420202020202038
:10403C002020202020202020202020202020202074
:10404C002020202020202020202020202020202064
:10405C002020202020202020202020202020202054
:10406C00202020202020202020202020207C0D0A11
:10407C007C202020202020202020202020202020D8
:10408C002020202020202020202020202020202024
:10409C002020202020202020202020202020202014
:1040AC002020202020202020202020202020202004
:1040BC00202020205C2424242424242020202020A0
:1040CC0020202020202020202020202020202020E4
:1040DC0020202020202020202020202020202020D4
:1040EC002020202020205C24242424242420202070
:1040FC0020202020202020202020202020202020B4
:10410C0020202020202020202020202020202020A3
:10411C002020202020202020202020202020202093
:10412C002020202020202020202020202020202083
:10413C00207C0D0A7C5F5F5F5F5F5F5F5F5F5F5F2F
:10414C005F5F5F5F5F5F5F5F5F5F5F5F5F5F5F5F73
:10415C005F5F5F5F5F5F5F5F5F5F5F5F5F5F5F5F63
:10416C005F5F5F5F5F5F5F5F5F5F5F5F5F5F5F5F53
:10417C005F5F5F5F5F5F5F5F5F5F5F5F5F5F5F5F43
:10418C005F5F5F5F5F5F5F5F5F5F5F5F5F5F5F5F33
:10419C005F5F5F5F5F5F5F5F5F5F5F5F5F5F5F5F23
:1041AC005F5F5F5F5F5F5F5F5F5F5F5F5F5F5F5F13
:1041BC005F5F5F5F5F5F5F5F5F5F5F5F5F5F5F5F03
:1041CC005F5F5F5F5F5F5F5F5F5F5F5F5F5F5F5FF3
:1041DC005F5F5F5F5F5F5F5F5F5F5F5F5F5F5F5FE3
:1041EC005F5F5F5F5F5F5F5F5F5F5F5F5F5F5F5FD3
:1041FC005F5F5F5F5F7C0D0A000000000000000045
:10420C00000000000102030406070809000000007A
:10421C000102030402030405060708090A0B0C0D2E
:10422C000E0F10100102232D302B2000686C4C0057
:10423C00656667454647003031323334353637389A
:10424C0039414243444546003031323334353637F8
:0C425C0038396162636465660000000090
:08426800E4BEFF7F010000002D
:044270003101000810
:044274000D01000830
:104278004C2A0008502A0008542A0008582A000826
:104288005C2A0008602A0008642A0008682A0008D6
:104298006C2A0008702A0008742A0008782A000886
:1042A8007C2A0008802A0008842A0008882A000836
:1042B8008C2A0008902A0008942A0008982A0008E6
:1042C8009C2A0008A02A0008A42A0008A82A000896
:1042D800AC2A0008B02A0008B42A0008B82A000846
:1042E800BC2A0008C02A0008C02A0008C42A0008FE
:1042F800D82A0008DC2A0008E02A0008E42A000876
:10430800E82A0008EC2A0008F02A0008F42A000825
:10431800F82A0008FC2A0008002B0008042B0008D3
:10432800082B00080C2B0008102B0008142B000881
:10433800182B00081C2B0008202B0008242B000831
:10434800282B00082C2B0008302B0008342B0008E1
:10435800382B00083C2B0008B42A0008B82A0008AB
:10436800BC2A0008C02A0008C02A0008C42A00087D
:1043780000127A0010000000010000001001002067
:104388000000000064020020CC020020340300205A
:104398000000000000000000000000000000000015
:1043A8000000000000000000000000000000000005
:1043B80000000000000000000000000000000000F5
:0C43C800000000000000000000000000E9
:0400000508000CC51E
:00000001FF
